{
	"contracts/Coin.sol": {
		"Coin": {
			"abi": [
				{
					"inputs": [],
					"stateMutability": "nonpayable",
					"type": "constructor"
				},
				{
					"inputs": [
						{
							"internalType": "address",
							"name": "receiver",
							"type": "address"
						},
						{
							"internalType": "uint256",
							"name": "amount",
							"type": "uint256"
						}
					],
					"name": "mint",
					"outputs": [],
					"stateMutability": "nonpayable",
					"type": "function"
				},
				{
					"inputs": [
						{
							"internalType": "address",
							"name": "receiver",
							"type": "address"
						},
						{
							"internalType": "uint256",
							"name": "amount",
							"type": "uint256"
						}
					],
					"name": "send",
					"outputs": [],
					"stateMutability": "nonpayable",
					"type": "function"
				},
				{
					"inputs": [],
					"name": "sender",
					"outputs": [
						{
							"internalType": "address",
							"name": "",
							"type": "address"
						}
					],
					"stateMutability": "view",
					"type": "function"
				}
			],
			"devdoc": {
				"kind": "dev",
				"methods": {},
				"version": 1
			},
			"evm": {
				"assembly": "    /* \"contracts/Coin.sol\":61:626  contract Coin {... */\n  mstore(0x40, 0x80)\n    /* \"contracts/Coin.sol\":159:211  constructor() {... */\n  callvalue\n  dup1\n  iszero\n  tag_1\n  jumpi\n  0x00\n  dup1\n  revert\ntag_1:\n  pop\n    /* \"contracts/Coin.sol\":193:203  msg.sender */\n  caller\n    /* \"contracts/Coin.sol\":184:190  sender */\n  0x00\n  dup1\n    /* \"contracts/Coin.sol\":184:203  sender = msg.sender */\n  0x0100\n  exp\n  dup2\n  sload\n  dup2\n  0xffffffffffffffffffffffffffffffffffffffff\n  mul\n  not\n  and\n  swap1\n  dup4\n  0xffffffffffffffffffffffffffffffffffffffff\n  and\n  mul\n  or\n  swap1\n  sstore\n  pop\n    /* \"contracts/Coin.sol\":61:626  contract Coin {... */\n  dataSize(sub_0)\n  dup1\n  dataOffset(sub_0)\n  0x00\n  codecopy\n  0x00\n  return\nstop\n\nsub_0: assembly {\n        /* \"contracts/Coin.sol\":61:626  contract Coin {... */\n      mstore(0x40, 0x80)\n      callvalue\n      dup1\n      iszero\n      tag_1\n      jumpi\n      0x00\n      dup1\n      revert\n    tag_1:\n      pop\n      jumpi(tag_2, lt(calldatasize, 0x04))\n      shr(0xe0, calldataload(0x00))\n      dup1\n      0x40c10f19\n      eq\n      tag_3\n      jumpi\n      dup1\n      0x67e404ce\n      eq\n      tag_4\n      jumpi\n      dup1\n      0xd0679d34\n      eq\n      tag_5\n      jumpi\n    tag_2:\n      0x00\n      dup1\n      revert\n        /* \"contracts/Coin.sol\":217:401  function mint(address receiver, uint amount) public {... */\n    tag_3:\n      tag_6\n      0x04\n      dup1\n      calldatasize\n      sub\n      dup2\n      add\n      swap1\n      tag_7\n      swap2\n      swap1\n      tag_8\n      jump\t// in\n    tag_7:\n      tag_9\n      jump\t// in\n    tag_6:\n      stop\n        /* \"contracts/Coin.sol\":82:103  address public sender */\n    tag_4:\n      tag_10\n      tag_11\n      jump\t// in\n    tag_10:\n      mload(0x40)\n      tag_12\n      swap2\n      swap1\n      tag_13\n      jump\t// in\n    tag_12:\n      mload(0x40)\n      dup1\n      swap2\n      sub\n      swap1\n      return\n        /* \"contracts/Coin.sol\":409:623  function send(address receiver, uint amount) public {... */\n    tag_5:\n      tag_14\n      0x04\n      dup1\n      calldatasize\n      sub\n      dup2\n      add\n      swap1\n      tag_15\n      swap2\n      swap1\n      tag_8\n      jump\t// in\n    tag_15:\n      tag_16\n      jump\t// in\n    tag_14:\n      stop\n        /* \"contracts/Coin.sol\":217:401  function mint(address receiver, uint amount) public {... */\n    tag_9:\n        /* \"contracts/Coin.sol\":298:308  msg.sender */\n      caller\n        /* \"contracts/Coin.sol\":288:308  sender == msg.sender */\n      0xffffffffffffffffffffffffffffffffffffffff\n      and\n        /* \"contracts/Coin.sol\":288:294  sender */\n      0x00\n      dup1\n      sload\n      swap1\n      0x0100\n      exp\n      swap1\n      div\n      0xffffffffffffffffffffffffffffffffffffffff\n      and\n        /* \"contracts/Coin.sol\":288:308  sender == msg.sender */\n      0xffffffffffffffffffffffffffffffffffffffff\n      and\n      eq\n        /* \"contracts/Coin.sol\":280:354  require(sender == msg.sender, \"Only the contract creator can mint coins.\") */\n      tag_18\n      jumpi\n      mload(0x40)\n      0x08c379a000000000000000000000000000000000000000000000000000000000\n      dup2\n      mstore\n      0x04\n      add\n      tag_19\n      swap1\n      tag_20\n      jump\t// in\n    tag_19:\n      mload(0x40)\n      dup1\n      swap2\n      sub\n      swap1\n      revert\n    tag_18:\n        /* \"contracts/Coin.sol\":387:393  amount */\n      dup1\n        /* \"contracts/Coin.sol\":365:373  balances */\n      0x01\n        /* \"contracts/Coin.sol\":365:383  balances[receiver] */\n      0x00\n        /* \"contracts/Coin.sol\":374:382  receiver */\n      dup5\n        /* \"contracts/Coin.sol\":365:383  balances[receiver] */\n      0xffffffffffffffffffffffffffffffffffffffff\n      and\n      0xffffffffffffffffffffffffffffffffffffffff\n      and\n      dup2\n      mstore\n      0x20\n      add\n      swap1\n      dup2\n      mstore\n      0x20\n      add\n      0x00\n      keccak256\n      0x00\n        /* \"contracts/Coin.sol\":365:393  balances[receiver] += amount */\n      dup3\n      dup3\n      sload\n      tag_21\n      swap2\n      swap1\n      tag_22\n      jump\t// in\n    tag_21:\n      swap3\n      pop\n      pop\n      dup2\n      swap1\n      sstore\n      pop\n        /* \"contracts/Coin.sol\":217:401  function mint(address receiver, uint amount) public {... */\n      pop\n      pop\n      jump\t// out\n        /* \"contracts/Coin.sol\":82:103  address public sender */\n    tag_11:\n      0x00\n      dup1\n      sload\n      swap1\n      0x0100\n      exp\n      swap1\n      div\n      0xffffffffffffffffffffffffffffffffffffffff\n      and\n      dup2\n      jump\t// out\n        /* \"contracts/Coin.sol\":409:623  function send(address receiver, uint amount) public {... */\n    tag_16:\n        /* \"contracts/Coin.sol\":504:510  amount */\n      dup1\n        /* \"contracts/Coin.sol\":480:488  balances */\n      0x01\n        /* \"contracts/Coin.sol\":480:500  balances[msg.sender] */\n      0x00\n        /* \"contracts/Coin.sol\":489:499  msg.sender */\n      caller\n        /* \"contracts/Coin.sol\":480:500  balances[msg.sender] */\n      0xffffffffffffffffffffffffffffffffffffffff\n      and\n      0xffffffffffffffffffffffffffffffffffffffff\n      and\n      dup2\n      mstore\n      0x20\n      add\n      swap1\n      dup2\n      mstore\n      0x20\n      add\n      0x00\n      keccak256\n      sload\n        /* \"contracts/Coin.sol\":480:510  balances[msg.sender] >= amount */\n      lt\n      iszero\n        /* \"contracts/Coin.sol\":472:535  require(balances[msg.sender] >= amount, \"Insufficient balance\") */\n      tag_24\n      jumpi\n      mload(0x40)\n      0x08c379a000000000000000000000000000000000000000000000000000000000\n      dup2\n      mstore\n      0x04\n      add\n      tag_25\n      swap1\n      tag_26\n      jump\t// in\n    tag_25:\n      mload(0x40)\n      dup1\n      swap2\n      sub\n      swap1\n      revert\n    tag_24:\n        /* \"contracts/Coin.sol\":568:574  amount */\n      dup1\n        /* \"contracts/Coin.sol\":546:554  balances */\n      0x01\n        /* \"contracts/Coin.sol\":546:564  balances[receiver] */\n      0x00\n        /* \"contracts/Coin.sol\":555:563  receiver */\n      dup5\n        /* \"contracts/Coin.sol\":546:564  balances[receiver] */\n      0xffffffffffffffffffffffffffffffffffffffff\n      and\n      0xffffffffffffffffffffffffffffffffffffffff\n      and\n      dup2\n      mstore\n      0x20\n      add\n      swap1\n      dup2\n      mstore\n      0x20\n      add\n      0x00\n      keccak256\n      0x00\n        /* \"contracts/Coin.sol\":546:574  balances[receiver] += amount */\n      dup3\n      dup3\n      sload\n      tag_27\n      swap2\n      swap1\n      tag_22\n      jump\t// in\n    tag_27:\n      swap3\n      pop\n      pop\n      dup2\n      swap1\n      sstore\n      pop\n        /* \"contracts/Coin.sol\":609:615  amount */\n      dup1\n        /* \"contracts/Coin.sol\":585:593  balances */\n      0x01\n        /* \"contracts/Coin.sol\":585:605  balances[msg.sender] */\n      0x00\n        /* \"contracts/Coin.sol\":594:604  msg.sender */\n      caller\n        /* \"contracts/Coin.sol\":585:605  balances[msg.sender] */\n      0xffffffffffffffffffffffffffffffffffffffff\n      and\n      0xffffffffffffffffffffffffffffffffffffffff\n      and\n      dup2\n      mstore\n      0x20\n      add\n      swap1\n      dup2\n      mstore\n      0x20\n      add\n      0x00\n      keccak256\n      0x00\n        /* \"contracts/Coin.sol\":585:615  balances[msg.sender] -= amount */\n      dup3\n      dup3\n      sload\n      tag_28\n      swap2\n      swap1\n      tag_29\n      jump\t// in\n    tag_28:\n      swap3\n      pop\n      pop\n      dup2\n      swap1\n      sstore\n      pop\n        /* \"contracts/Coin.sol\":409:623  function send(address receiver, uint amount) public {... */\n      pop\n      pop\n      jump\t// out\n        /* \"#utility.yul\":88:205   */\n    tag_31:\n        /* \"#utility.yul\":197:198   */\n      0x00\n        /* \"#utility.yul\":194:195   */\n      dup1\n        /* \"#utility.yul\":187:199   */\n      revert\n        /* \"#utility.yul\":334:460   */\n    tag_33:\n        /* \"#utility.yul\":371:378   */\n      0x00\n        /* \"#utility.yul\":411:453   */\n      0xffffffffffffffffffffffffffffffffffffffff\n        /* \"#utility.yul\":404:409   */\n      dup3\n        /* \"#utility.yul\":400:454   */\n      and\n        /* \"#utility.yul\":389:454   */\n      swap1\n      pop\n        /* \"#utility.yul\":334:460   */\n      swap2\n      swap1\n      pop\n      jump\t// out\n        /* \"#utility.yul\":466:562   */\n    tag_34:\n        /* \"#utility.yul\":503:510   */\n      0x00\n        /* \"#utility.yul\":532:556   */\n      tag_53\n        /* \"#utility.yul\":550:555   */\n      dup3\n        /* \"#utility.yul\":532:556   */\n      tag_33\n      jump\t// in\n    tag_53:\n        /* \"#utility.yul\":521:556   */\n      swap1\n      pop\n        /* \"#utility.yul\":466:562   */\n      swap2\n      swap1\n      pop\n      jump\t// out\n        /* \"#utility.yul\":568:690   */\n    tag_35:\n        /* \"#utility.yul\":641:665   */\n      tag_55\n        /* \"#utility.yul\":659:664   */\n      dup2\n        /* \"#utility.yul\":641:665   */\n      tag_34\n      jump\t// in\n    tag_55:\n        /* \"#utility.yul\":634:639   */\n      dup2\n        /* \"#utility.yul\":631:666   */\n      eq\n        /* \"#utility.yul\":621:684   */\n      tag_56\n      jumpi\n        /* \"#utility.yul\":680:681   */\n      0x00\n        /* \"#utility.yul\":677:678   */\n      dup1\n        /* \"#utility.yul\":670:682   */\n      revert\n        /* \"#utility.yul\":621:684   */\n    tag_56:\n        /* \"#utility.yul\":568:690   */\n      pop\n      jump\t// out\n        /* \"#utility.yul\":696:835   */\n    tag_36:\n        /* \"#utility.yul\":742:747   */\n      0x00\n        /* \"#utility.yul\":780:786   */\n      dup2\n        /* \"#utility.yul\":767:787   */\n      calldataload\n        /* \"#utility.yul\":758:787   */\n      swap1\n      pop\n        /* \"#utility.yul\":796:829   */\n      tag_58\n        /* \"#utility.yul\":823:828   */\n      dup2\n        /* \"#utility.yul\":796:829   */\n      tag_35\n      jump\t// in\n    tag_58:\n        /* \"#utility.yul\":696:835   */\n      swap3\n      swap2\n      pop\n      pop\n      jump\t// out\n        /* \"#utility.yul\":841:918   */\n    tag_37:\n        /* \"#utility.yul\":878:885   */\n      0x00\n        /* \"#utility.yul\":907:912   */\n      dup2\n        /* \"#utility.yul\":896:912   */\n      swap1\n      pop\n        /* \"#utility.yul\":841:918   */\n      swap2\n      swap1\n      pop\n      jump\t// out\n        /* \"#utility.yul\":924:1046   */\n    tag_38:\n        /* \"#utility.yul\":997:1021   */\n      tag_61\n        /* \"#utility.yul\":1015:1020   */\n      dup2\n        /* \"#utility.yul\":997:1021   */\n      tag_37\n      jump\t// in\n    tag_61:\n        /* \"#utility.yul\":990:995   */\n      dup2\n        /* \"#utility.yul\":987:1022   */\n      eq\n        /* \"#utility.yul\":977:1040   */\n      tag_62\n      jumpi\n        /* \"#utility.yul\":1036:1037   */\n      0x00\n        /* \"#utility.yul\":1033:1034   */\n      dup1\n        /* \"#utility.yul\":1026:1038   */\n      revert\n        /* \"#utility.yul\":977:1040   */\n    tag_62:\n        /* \"#utility.yul\":924:1046   */\n      pop\n      jump\t// out\n        /* \"#utility.yul\":1052:1191   */\n    tag_39:\n        /* \"#utility.yul\":1098:1103   */\n      0x00\n        /* \"#utility.yul\":1136:1142   */\n      dup2\n        /* \"#utility.yul\":1123:1143   */\n      calldataload\n        /* \"#utility.yul\":1114:1143   */\n      swap1\n      pop\n        /* \"#utility.yul\":1152:1185   */\n      tag_64\n        /* \"#utility.yul\":1179:1184   */\n      dup2\n        /* \"#utility.yul\":1152:1185   */\n      tag_38\n      jump\t// in\n    tag_64:\n        /* \"#utility.yul\":1052:1191   */\n      swap3\n      swap2\n      pop\n      pop\n      jump\t// out\n        /* \"#utility.yul\":1197:1671   */\n    tag_8:\n        /* \"#utility.yul\":1265:1271   */\n      0x00\n        /* \"#utility.yul\":1273:1279   */\n      dup1\n        /* \"#utility.yul\":1322:1324   */\n      0x40\n        /* \"#utility.yul\":1310:1319   */\n      dup4\n        /* \"#utility.yul\":1301:1308   */\n      dup6\n        /* \"#utility.yul\":1297:1320   */\n      sub\n        /* \"#utility.yul\":1293:1325   */\n      slt\n        /* \"#utility.yul\":1290:1409   */\n      iszero\n      tag_66\n      jumpi\n        /* \"#utility.yul\":1328:1407   */\n      tag_67\n      tag_31\n      jump\t// in\n    tag_67:\n        /* \"#utility.yul\":1290:1409   */\n    tag_66:\n        /* \"#utility.yul\":1448:1449   */\n      0x00\n        /* \"#utility.yul\":1473:1526   */\n      tag_68\n        /* \"#utility.yul\":1518:1525   */\n      dup6\n        /* \"#utility.yul\":1509:1515   */\n      dup3\n        /* \"#utility.yul\":1498:1507   */\n      dup7\n        /* \"#utility.yul\":1494:1516   */\n      add\n        /* \"#utility.yul\":1473:1526   */\n      tag_36\n      jump\t// in\n    tag_68:\n        /* \"#utility.yul\":1463:1526   */\n      swap3\n      pop\n        /* \"#utility.yul\":1419:1536   */\n      pop\n        /* \"#utility.yul\":1575:1577   */\n      0x20\n        /* \"#utility.yul\":1601:1654   */\n      tag_69\n        /* \"#utility.yul\":1646:1653   */\n      dup6\n        /* \"#utility.yul\":1637:1643   */\n      dup3\n        /* \"#utility.yul\":1626:1635   */\n      dup7\n        /* \"#utility.yul\":1622:1644   */\n      add\n        /* \"#utility.yul\":1601:1654   */\n      tag_39\n      jump\t// in\n    tag_69:\n        /* \"#utility.yul\":1591:1654   */\n      swap2\n      pop\n        /* \"#utility.yul\":1546:1664   */\n      pop\n        /* \"#utility.yul\":1197:1671   */\n      swap3\n      pop\n      swap3\n      swap1\n      pop\n      jump\t// out\n        /* \"#utility.yul\":1677:1795   */\n    tag_40:\n        /* \"#utility.yul\":1764:1788   */\n      tag_71\n        /* \"#utility.yul\":1782:1787   */\n      dup2\n        /* \"#utility.yul\":1764:1788   */\n      tag_34\n      jump\t// in\n    tag_71:\n        /* \"#utility.yul\":1759:1762   */\n      dup3\n        /* \"#utility.yul\":1752:1789   */\n      mstore\n        /* \"#utility.yul\":1677:1795   */\n      pop\n      pop\n      jump\t// out\n        /* \"#utility.yul\":1801:2023   */\n    tag_13:\n        /* \"#utility.yul\":1894:1898   */\n      0x00\n        /* \"#utility.yul\":1932:1934   */\n      0x20\n        /* \"#utility.yul\":1921:1930   */\n      dup3\n        /* \"#utility.yul\":1917:1935   */\n      add\n        /* \"#utility.yul\":1909:1935   */\n      swap1\n      pop\n        /* \"#utility.yul\":1945:2016   */\n      tag_73\n        /* \"#utility.yul\":2013:2014   */\n      0x00\n        /* \"#utility.yul\":2002:2011   */\n      dup4\n        /* \"#utility.yul\":1998:2015   */\n      add\n        /* \"#utility.yul\":1989:1995   */\n      dup5\n        /* \"#utility.yul\":1945:2016   */\n      tag_40\n      jump\t// in\n    tag_73:\n        /* \"#utility.yul\":1801:2023   */\n      swap3\n      swap2\n      pop\n      pop\n      jump\t// out\n        /* \"#utility.yul\":2029:2198   */\n    tag_41:\n        /* \"#utility.yul\":2113:2124   */\n      0x00\n        /* \"#utility.yul\":2147:2153   */\n      dup3\n        /* \"#utility.yul\":2142:2145   */\n      dup3\n        /* \"#utility.yul\":2135:2154   */\n      mstore\n        /* \"#utility.yul\":2187:2191   */\n      0x20\n        /* \"#utility.yul\":2182:2185   */\n      dup3\n        /* \"#utility.yul\":2178:2192   */\n      add\n        /* \"#utility.yul\":2163:2192   */\n      swap1\n      pop\n        /* \"#utility.yul\":2029:2198   */\n      swap3\n      swap2\n      pop\n      pop\n      jump\t// out\n        /* \"#utility.yul\":2204:2432   */\n    tag_42:\n        /* \"#utility.yul\":2344:2378   */\n      0x4f6e6c792074686520636f6e74726163742063726561746f722063616e206d69\n        /* \"#utility.yul\":2340:2341   */\n      0x00\n        /* \"#utility.yul\":2332:2338   */\n      dup3\n        /* \"#utility.yul\":2328:2342   */\n      add\n        /* \"#utility.yul\":2321:2379   */\n      mstore\n        /* \"#utility.yul\":2413:2424   */\n      0x6e7420636f696e732e0000000000000000000000000000000000000000000000\n        /* \"#utility.yul\":2408:2410   */\n      0x20\n        /* \"#utility.yul\":2400:2406   */\n      dup3\n        /* \"#utility.yul\":2396:2411   */\n      add\n        /* \"#utility.yul\":2389:2425   */\n      mstore\n        /* \"#utility.yul\":2204:2432   */\n      pop\n      jump\t// out\n        /* \"#utility.yul\":2438:2804   */\n    tag_43:\n        /* \"#utility.yul\":2580:2583   */\n      0x00\n        /* \"#utility.yul\":2601:2668   */\n      tag_77\n        /* \"#utility.yul\":2665:2667   */\n      0x29\n        /* \"#utility.yul\":2660:2663   */\n      dup4\n        /* \"#utility.yul\":2601:2668   */\n      tag_41\n      jump\t// in\n    tag_77:\n        /* \"#utility.yul\":2594:2668   */\n      swap2\n      pop\n        /* \"#utility.yul\":2677:2770   */\n      tag_78\n        /* \"#utility.yul\":2766:2769   */\n      dup3\n        /* \"#utility.yul\":2677:2770   */\n      tag_42\n      jump\t// in\n    tag_78:\n        /* \"#utility.yul\":2795:2797   */\n      0x40\n        /* \"#utility.yul\":2790:2793   */\n      dup3\n        /* \"#utility.yul\":2786:2798   */\n      add\n        /* \"#utility.yul\":2779:2798   */\n      swap1\n      pop\n        /* \"#utility.yul\":2438:2804   */\n      swap2\n      swap1\n      pop\n      jump\t// out\n        /* \"#utility.yul\":2810:3229   */\n    tag_20:\n        /* \"#utility.yul\":2976:2980   */\n      0x00\n        /* \"#utility.yul\":3014:3016   */\n      0x20\n        /* \"#utility.yul\":3003:3012   */\n      dup3\n        /* \"#utility.yul\":2999:3017   */\n      add\n        /* \"#utility.yul\":2991:3017   */\n      swap1\n      pop\n        /* \"#utility.yul\":3063:3072   */\n      dup2\n        /* \"#utility.yul\":3057:3061   */\n      dup2\n        /* \"#utility.yul\":3053:3073   */\n      sub\n        /* \"#utility.yul\":3049:3050   */\n      0x00\n        /* \"#utility.yul\":3038:3047   */\n      dup4\n        /* \"#utility.yul\":3034:3051   */\n      add\n        /* \"#utility.yul\":3027:3074   */\n      mstore\n        /* \"#utility.yul\":3091:3222   */\n      tag_80\n        /* \"#utility.yul\":3217:3221   */\n      dup2\n        /* \"#utility.yul\":3091:3222   */\n      tag_43\n      jump\t// in\n    tag_80:\n        /* \"#utility.yul\":3083:3222   */\n      swap1\n      pop\n        /* \"#utility.yul\":2810:3229   */\n      swap2\n      swap1\n      pop\n      jump\t// out\n        /* \"#utility.yul\":3235:3415   */\n    tag_44:\n        /* \"#utility.yul\":3283:3360   */\n      0x4e487b7100000000000000000000000000000000000000000000000000000000\n        /* \"#utility.yul\":3280:3281   */\n      0x00\n        /* \"#utility.yul\":3273:3361   */\n      mstore\n        /* \"#utility.yul\":3380:3384   */\n      0x11\n        /* \"#utility.yul\":3377:3378   */\n      0x04\n        /* \"#utility.yul\":3370:3385   */\n      mstore\n        /* \"#utility.yul\":3404:3408   */\n      0x24\n        /* \"#utility.yul\":3401:3402   */\n      0x00\n        /* \"#utility.yul\":3394:3409   */\n      revert\n        /* \"#utility.yul\":3421:3612   */\n    tag_22:\n        /* \"#utility.yul\":3461:3464   */\n      0x00\n        /* \"#utility.yul\":3480:3500   */\n      tag_83\n        /* \"#utility.yul\":3498:3499   */\n      dup3\n        /* \"#utility.yul\":3480:3500   */\n      tag_37\n      jump\t// in\n    tag_83:\n        /* \"#utility.yul\":3475:3500   */\n      swap2\n      pop\n        /* \"#utility.yul\":3514:3534   */\n      tag_84\n        /* \"#utility.yul\":3532:3533   */\n      dup4\n        /* \"#utility.yul\":3514:3534   */\n      tag_37\n      jump\t// in\n    tag_84:\n        /* \"#utility.yul\":3509:3534   */\n      swap3\n      pop\n        /* \"#utility.yul\":3557:3558   */\n      dup3\n        /* \"#utility.yul\":3554:3555   */\n      dup3\n        /* \"#utility.yul\":3550:3559   */\n      add\n        /* \"#utility.yul\":3543:3559   */\n      swap1\n      pop\n        /* \"#utility.yul\":3578:3581   */\n      dup1\n        /* \"#utility.yul\":3575:3576   */\n      dup3\n        /* \"#utility.yul\":3572:3582   */\n      gt\n        /* \"#utility.yul\":3569:3605   */\n      iszero\n      tag_85\n      jumpi\n        /* \"#utility.yul\":3585:3603   */\n      tag_86\n      tag_44\n      jump\t// in\n    tag_86:\n        /* \"#utility.yul\":3569:3605   */\n    tag_85:\n        /* \"#utility.yul\":3421:3612   */\n      swap3\n      swap2\n      pop\n      pop\n      jump\t// out\n        /* \"#utility.yul\":3618:3788   */\n    tag_45:\n        /* \"#utility.yul\":3758:3780   */\n      0x496e73756666696369656e742062616c616e6365000000000000000000000000\n        /* \"#utility.yul\":3754:3755   */\n      0x00\n        /* \"#utility.yul\":3746:3752   */\n      dup3\n        /* \"#utility.yul\":3742:3756   */\n      add\n        /* \"#utility.yul\":3735:3781   */\n      mstore\n        /* \"#utility.yul\":3618:3788   */\n      pop\n      jump\t// out\n        /* \"#utility.yul\":3794:4160   */\n    tag_46:\n        /* \"#utility.yul\":3936:3939   */\n      0x00\n        /* \"#utility.yul\":3957:4024   */\n      tag_89\n        /* \"#utility.yul\":4021:4023   */\n      0x14\n        /* \"#utility.yul\":4016:4019   */\n      dup4\n        /* \"#utility.yul\":3957:4024   */\n      tag_41\n      jump\t// in\n    tag_89:\n        /* \"#utility.yul\":3950:4024   */\n      swap2\n      pop\n        /* \"#utility.yul\":4033:4126   */\n      tag_90\n        /* \"#utility.yul\":4122:4125   */\n      dup3\n        /* \"#utility.yul\":4033:4126   */\n      tag_45\n      jump\t// in\n    tag_90:\n        /* \"#utility.yul\":4151:4153   */\n      0x20\n        /* \"#utility.yul\":4146:4149   */\n      dup3\n        /* \"#utility.yul\":4142:4154   */\n      add\n        /* \"#utility.yul\":4135:4154   */\n      swap1\n      pop\n        /* \"#utility.yul\":3794:4160   */\n      swap2\n      swap1\n      pop\n      jump\t// out\n        /* \"#utility.yul\":4166:4585   */\n    tag_26:\n        /* \"#utility.yul\":4332:4336   */\n      0x00\n        /* \"#utility.yul\":4370:4372   */\n      0x20\n        /* \"#utility.yul\":4359:4368   */\n      dup3\n        /* \"#utility.yul\":4355:4373   */\n      add\n        /* \"#utility.yul\":4347:4373   */\n      swap1\n      pop\n        /* \"#utility.yul\":4419:4428   */\n      dup2\n        /* \"#utility.yul\":4413:4417   */\n      dup2\n        /* \"#utility.yul\":4409:4429   */\n      sub\n        /* \"#utility.yul\":4405:4406   */\n      0x00\n        /* \"#utility.yul\":4394:4403   */\n      dup4\n        /* \"#utility.yul\":4390:4407   */\n      add\n        /* \"#utility.yul\":4383:4430   */\n      mstore\n        /* \"#utility.yul\":4447:4578   */\n      tag_92\n        /* \"#utility.yul\":4573:4577   */\n      dup2\n        /* \"#utility.yul\":4447:4578   */\n      tag_46\n      jump\t// in\n    tag_92:\n        /* \"#utility.yul\":4439:4578   */\n      swap1\n      pop\n        /* \"#utility.yul\":4166:4585   */\n      swap2\n      swap1\n      pop\n      jump\t// out\n        /* \"#utility.yul\":4591:4785   */\n    tag_29:\n        /* \"#utility.yul\":4631:4635   */\n      0x00\n        /* \"#utility.yul\":4651:4671   */\n      tag_94\n        /* \"#utility.yul\":4669:4670   */\n      dup3\n        /* \"#utility.yul\":4651:4671   */\n      tag_37\n      jump\t// in\n    tag_94:\n        /* \"#utility.yul\":4646:4671   */\n      swap2\n      pop\n        /* \"#utility.yul\":4685:4705   */\n      tag_95\n        /* \"#utility.yul\":4703:4704   */\n      dup4\n        /* \"#utility.yul\":4685:4705   */\n      tag_37\n      jump\t// in\n    tag_95:\n        /* \"#utility.yul\":4680:4705   */\n      swap3\n      pop\n        /* \"#utility.yul\":4729:4730   */\n      dup3\n        /* \"#utility.yul\":4726:4727   */\n      dup3\n        /* \"#utility.yul\":4722:4731   */\n      sub\n        /* \"#utility.yul\":4714:4731   */\n      swap1\n      pop\n        /* \"#utility.yul\":4753:4754   */\n      dup2\n        /* \"#utility.yul\":4747:4751   */\n      dup2\n        /* \"#utility.yul\":4744:4755   */\n      gt\n        /* \"#utility.yul\":4741:4778   */\n      iszero\n      tag_96\n      jumpi\n        /* \"#utility.yul\":4758:4776   */\n      tag_97\n      tag_44\n      jump\t// in\n    tag_97:\n        /* \"#utility.yul\":4741:4778   */\n    tag_96:\n        /* \"#utility.yul\":4591:4785   */\n      swap3\n      swap2\n      pop\n      pop\n      jump\t// out\n\n    auxdata: 0xa264697066735822122046dc43b9893f24d96669d44aaea3458315cd34ea3f6d9397a26a2404e2833f7764736f6c634300081a0033\n}\n",
				"bytecode": {
					"linkReferences": {},
					"object": "6080604052348015600e575f80fd5b50335f806101000a81548173ffffffffffffffffffffffffffffffffffffffff021916908373ffffffffffffffffffffffffffffffffffffffff1602179055506105908061005b5f395ff3fe608060405234801561000f575f80fd5b506004361061003f575f3560e01c806340c10f191461004357806367e404ce1461005f578063d0679d341461007d575b5f80fd5b61005d6004803603810190610058919061035b565b610099565b005b61006761017d565b60405161007491906103a8565b60405180910390f35b6100976004803603810190610092919061035b565b6101a0565b005b3373ffffffffffffffffffffffffffffffffffffffff165f8054906101000a900473ffffffffffffffffffffffffffffffffffffffff1673ffffffffffffffffffffffffffffffffffffffff1614610126576040517f08c379a000000000000000000000000000000000000000000000000000000000815260040161011d90610441565b60405180910390fd5b8060015f8473ffffffffffffffffffffffffffffffffffffffff1673ffffffffffffffffffffffffffffffffffffffff1681526020019081526020015f205f828254610172919061048c565b925050819055505050565b5f8054906101000a900473ffffffffffffffffffffffffffffffffffffffff1681565b8060015f3373ffffffffffffffffffffffffffffffffffffffff1673ffffffffffffffffffffffffffffffffffffffff1681526020019081526020015f20541015610220576040517f08c379a000000000000000000000000000000000000000000000000000000000815260040161021790610509565b60405180910390fd5b8060015f8473ffffffffffffffffffffffffffffffffffffffff1673ffffffffffffffffffffffffffffffffffffffff1681526020019081526020015f205f82825461026c919061048c565b925050819055508060015f3373ffffffffffffffffffffffffffffffffffffffff1673ffffffffffffffffffffffffffffffffffffffff1681526020019081526020015f205f8282546102bf9190610527565b925050819055505050565b5f80fd5b5f73ffffffffffffffffffffffffffffffffffffffff82169050919050565b5f6102f7826102ce565b9050919050565b610307816102ed565b8114610311575f80fd5b50565b5f81359050610322816102fe565b92915050565b5f819050919050565b61033a81610328565b8114610344575f80fd5b50565b5f8135905061035581610331565b92915050565b5f8060408385031215610371576103706102ca565b5b5f61037e85828601610314565b925050602061038f85828601610347565b9150509250929050565b6103a2816102ed565b82525050565b5f6020820190506103bb5f830184610399565b92915050565b5f82825260208201905092915050565b7f4f6e6c792074686520636f6e74726163742063726561746f722063616e206d695f8201527f6e7420636f696e732e0000000000000000000000000000000000000000000000602082015250565b5f61042b6029836103c1565b9150610436826103d1565b604082019050919050565b5f6020820190508181035f8301526104588161041f565b9050919050565b7f4e487b71000000000000000000000000000000000000000000000000000000005f52601160045260245ffd5b5f61049682610328565b91506104a183610328565b92508282019050808211156104b9576104b861045f565b5b92915050565b7f496e73756666696369656e742062616c616e63650000000000000000000000005f82015250565b5f6104f36014836103c1565b91506104fe826104bf565b602082019050919050565b5f6020820190508181035f830152610520816104e7565b9050919050565b5f61053182610328565b915061053c83610328565b92508282039050818111156105545761055361045f565b5b9291505056fea264697066735822122046dc43b9893f24d96669d44aaea3458315cd34ea3f6d9397a26a2404e2833f7764736f6c634300081a0033",
					"opcodes": "PUSH1 0x80 PUSH1 0x40 MSTORE CALLVALUE DUP1 ISZERO PUSH1 0xE JUMPI PUSH0 DUP1 REVERT JUMPDEST POP CALLER PUSH0 DUP1 PUSH2 0x100 EXP DUP2 SLOAD DUP2 PUSH20 0xFFFFFFFFFFFFFFFFFFFFFFFFFFFFFFFFFFFFFFFF MUL NOT AND SWAP1 DUP4 PUSH20 0xFFFFFFFFFFFFFFFFFFFFFFFFFFFFFFFFFFFFFFFF AND MUL OR SWAP1 SSTORE POP PUSH2 0x590 DUP1 PUSH2 0x5B PUSH0 CODECOPY PUSH0 RETURN INVALID PUSH1 0x80 PUSH1 0x40 MSTORE CALLVALUE DUP1 ISZERO PUSH2 0xF JUMPI PUSH0 DUP1 REVERT JUMPDEST POP PUSH1 0x4 CALLDATASIZE LT PUSH2 0x3F JUMPI PUSH0 CALLDATALOAD PUSH1 0xE0 SHR DUP1 PUSH4 0x40C10F19 EQ PUSH2 0x43 JUMPI DUP1 PUSH4 0x67E404CE EQ PUSH2 0x5F JUMPI DUP1 PUSH4 0xD0679D34 EQ PUSH2 0x7D JUMPI JUMPDEST PUSH0 DUP1 REVERT JUMPDEST PUSH2 0x5D PUSH1 0x4 DUP1 CALLDATASIZE SUB DUP2 ADD SWAP1 PUSH2 0x58 SWAP2 SWAP1 PUSH2 0x35B JUMP JUMPDEST PUSH2 0x99 JUMP JUMPDEST STOP JUMPDEST PUSH2 0x67 PUSH2 0x17D JUMP JUMPDEST PUSH1 0x40 MLOAD PUSH2 0x74 SWAP2 SWAP1 PUSH2 0x3A8 JUMP JUMPDEST PUSH1 0x40 MLOAD DUP1 SWAP2 SUB SWAP1 RETURN JUMPDEST PUSH2 0x97 PUSH1 0x4 DUP1 CALLDATASIZE SUB DUP2 ADD SWAP1 PUSH2 0x92 SWAP2 SWAP1 PUSH2 0x35B JUMP JUMPDEST PUSH2 0x1A0 JUMP JUMPDEST STOP JUMPDEST CALLER PUSH20 0xFFFFFFFFFFFFFFFFFFFFFFFFFFFFFFFFFFFFFFFF AND PUSH0 DUP1 SLOAD SWAP1 PUSH2 0x100 EXP SWAP1 DIV PUSH20 0xFFFFFFFFFFFFFFFFFFFFFFFFFFFFFFFFFFFFFFFF AND PUSH20 0xFFFFFFFFFFFFFFFFFFFFFFFFFFFFFFFFFFFFFFFF AND EQ PUSH2 0x126 JUMPI PUSH1 0x40 MLOAD PUSH32 0x8C379A000000000000000000000000000000000000000000000000000000000 DUP2 MSTORE PUSH1 0x4 ADD PUSH2 0x11D SWAP1 PUSH2 0x441 JUMP JUMPDEST PUSH1 0x40 MLOAD DUP1 SWAP2 SUB SWAP1 REVERT JUMPDEST DUP1 PUSH1 0x1 PUSH0 DUP5 PUSH20 0xFFFFFFFFFFFFFFFFFFFFFFFFFFFFFFFFFFFFFFFF AND PUSH20 0xFFFFFFFFFFFFFFFFFFFFFFFFFFFFFFFFFFFFFFFF AND DUP2 MSTORE PUSH1 0x20 ADD SWAP1 DUP2 MSTORE PUSH1 0x20 ADD PUSH0 KECCAK256 PUSH0 DUP3 DUP3 SLOAD PUSH2 0x172 SWAP2 SWAP1 PUSH2 0x48C JUMP JUMPDEST SWAP3 POP POP DUP2 SWAP1 SSTORE POP POP POP JUMP JUMPDEST PUSH0 DUP1 SLOAD SWAP1 PUSH2 0x100 EXP SWAP1 DIV PUSH20 0xFFFFFFFFFFFFFFFFFFFFFFFFFFFFFFFFFFFFFFFF AND DUP2 JUMP JUMPDEST DUP1 PUSH1 0x1 PUSH0 CALLER PUSH20 0xFFFFFFFFFFFFFFFFFFFFFFFFFFFFFFFFFFFFFFFF AND PUSH20 0xFFFFFFFFFFFFFFFFFFFFFFFFFFFFFFFFFFFFFFFF AND DUP2 MSTORE PUSH1 0x20 ADD SWAP1 DUP2 MSTORE PUSH1 0x20 ADD PUSH0 KECCAK256 SLOAD LT ISZERO PUSH2 0x220 JUMPI PUSH1 0x40 MLOAD PUSH32 0x8C379A000000000000000000000000000000000000000000000000000000000 DUP2 MSTORE PUSH1 0x4 ADD PUSH2 0x217 SWAP1 PUSH2 0x509 JUMP JUMPDEST PUSH1 0x40 MLOAD DUP1 SWAP2 SUB SWAP1 REVERT JUMPDEST DUP1 PUSH1 0x1 PUSH0 DUP5 PUSH20 0xFFFFFFFFFFFFFFFFFFFFFFFFFFFFFFFFFFFFFFFF AND PUSH20 0xFFFFFFFFFFFFFFFFFFFFFFFFFFFFFFFFFFFFFFFF AND DUP2 MSTORE PUSH1 0x20 ADD SWAP1 DUP2 MSTORE PUSH1 0x20 ADD PUSH0 KECCAK256 PUSH0 DUP3 DUP3 SLOAD PUSH2 0x26C SWAP2 SWAP1 PUSH2 0x48C JUMP JUMPDEST SWAP3 POP POP DUP2 SWAP1 SSTORE POP DUP1 PUSH1 0x1 PUSH0 CALLER PUSH20 0xFFFFFFFFFFFFFFFFFFFFFFFFFFFFFFFFFFFFFFFF AND PUSH20 0xFFFFFFFFFFFFFFFFFFFFFFFFFFFFFFFFFFFFFFFF AND DUP2 MSTORE PUSH1 0x20 ADD SWAP1 DUP2 MSTORE PUSH1 0x20 ADD PUSH0 KECCAK256 PUSH0 DUP3 DUP3 SLOAD PUSH2 0x2BF SWAP2 SWAP1 PUSH2 0x527 JUMP JUMPDEST SWAP3 POP POP DUP2 SWAP1 SSTORE POP POP POP JUMP JUMPDEST PUSH0 DUP1 REVERT JUMPDEST PUSH0 PUSH20 0xFFFFFFFFFFFFFFFFFFFFFFFFFFFFFFFFFFFFFFFF DUP3 AND SWAP1 POP SWAP2 SWAP1 POP JUMP JUMPDEST PUSH0 PUSH2 0x2F7 DUP3 PUSH2 0x2CE JUMP JUMPDEST SWAP1 POP SWAP2 SWAP1 POP JUMP JUMPDEST PUSH2 0x307 DUP2 PUSH2 0x2ED JUMP JUMPDEST DUP2 EQ PUSH2 0x311 JUMPI PUSH0 DUP1 REVERT JUMPDEST POP JUMP JUMPDEST PUSH0 DUP2 CALLDATALOAD SWAP1 POP PUSH2 0x322 DUP2 PUSH2 0x2FE JUMP JUMPDEST SWAP3 SWAP2 POP POP JUMP JUMPDEST PUSH0 DUP2 SWAP1 POP SWAP2 SWAP1 POP JUMP JUMPDEST PUSH2 0x33A DUP2 PUSH2 0x328 JUMP JUMPDEST DUP2 EQ PUSH2 0x344 JUMPI PUSH0 DUP1 REVERT JUMPDEST POP JUMP JUMPDEST PUSH0 DUP2 CALLDATALOAD SWAP1 POP PUSH2 0x355 DUP2 PUSH2 0x331 JUMP JUMPDEST SWAP3 SWAP2 POP POP JUMP JUMPDEST PUSH0 DUP1 PUSH1 0x40 DUP4 DUP6 SUB SLT ISZERO PUSH2 0x371 JUMPI PUSH2 0x370 PUSH2 0x2CA JUMP JUMPDEST JUMPDEST PUSH0 PUSH2 0x37E DUP6 DUP3 DUP7 ADD PUSH2 0x314 JUMP JUMPDEST SWAP3 POP POP PUSH1 0x20 PUSH2 0x38F DUP6 DUP3 DUP7 ADD PUSH2 0x347 JUMP JUMPDEST SWAP2 POP POP SWAP3 POP SWAP3 SWAP1 POP JUMP JUMPDEST PUSH2 0x3A2 DUP2 PUSH2 0x2ED JUMP JUMPDEST DUP3 MSTORE POP POP JUMP JUMPDEST PUSH0 PUSH1 0x20 DUP3 ADD SWAP1 POP PUSH2 0x3BB PUSH0 DUP4 ADD DUP5 PUSH2 0x399 JUMP JUMPDEST SWAP3 SWAP2 POP POP JUMP JUMPDEST PUSH0 DUP3 DUP3 MSTORE PUSH1 0x20 DUP3 ADD SWAP1 POP SWAP3 SWAP2 POP POP JUMP JUMPDEST PUSH32 0x4F6E6C792074686520636F6E74726163742063726561746F722063616E206D69 PUSH0 DUP3 ADD MSTORE PUSH32 0x6E7420636F696E732E0000000000000000000000000000000000000000000000 PUSH1 0x20 DUP3 ADD MSTORE POP JUMP JUMPDEST PUSH0 PUSH2 0x42B PUSH1 0x29 DUP4 PUSH2 0x3C1 JUMP JUMPDEST SWAP2 POP PUSH2 0x436 DUP3 PUSH2 0x3D1 JUMP JUMPDEST PUSH1 0x40 DUP3 ADD SWAP1 POP SWAP2 SWAP1 POP JUMP JUMPDEST PUSH0 PUSH1 0x20 DUP3 ADD SWAP1 POP DUP2 DUP2 SUB PUSH0 DUP4 ADD MSTORE PUSH2 0x458 DUP2 PUSH2 0x41F JUMP JUMPDEST SWAP1 POP SWAP2 SWAP1 POP JUMP JUMPDEST PUSH32 0x4E487B7100000000000000000000000000000000000000000000000000000000 PUSH0 MSTORE PUSH1 0x11 PUSH1 0x4 MSTORE PUSH1 0x24 PUSH0 REVERT JUMPDEST PUSH0 PUSH2 0x496 DUP3 PUSH2 0x328 JUMP JUMPDEST SWAP2 POP PUSH2 0x4A1 DUP4 PUSH2 0x328 JUMP JUMPDEST SWAP3 POP DUP3 DUP3 ADD SWAP1 POP DUP1 DUP3 GT ISZERO PUSH2 0x4B9 JUMPI PUSH2 0x4B8 PUSH2 0x45F JUMP JUMPDEST JUMPDEST SWAP3 SWAP2 POP POP JUMP JUMPDEST PUSH32 0x496E73756666696369656E742062616C616E6365000000000000000000000000 PUSH0 DUP3 ADD MSTORE POP JUMP JUMPDEST PUSH0 PUSH2 0x4F3 PUSH1 0x14 DUP4 PUSH2 0x3C1 JUMP JUMPDEST SWAP2 POP PUSH2 0x4FE DUP3 PUSH2 0x4BF JUMP JUMPDEST PUSH1 0x20 DUP3 ADD SWAP1 POP SWAP2 SWAP1 POP JUMP JUMPDEST PUSH0 PUSH1 0x20 DUP3 ADD SWAP1 POP DUP2 DUP2 SUB PUSH0 DUP4 ADD MSTORE PUSH2 0x520 DUP2 PUSH2 0x4E7 JUMP JUMPDEST SWAP1 POP SWAP2 SWAP1 POP JUMP JUMPDEST PUSH0 PUSH2 0x531 DUP3 PUSH2 0x328 JUMP JUMPDEST SWAP2 POP PUSH2 0x53C DUP4 PUSH2 0x328 JUMP JUMPDEST SWAP3 POP DUP3 DUP3 SUB SWAP1 POP DUP2 DUP2 GT ISZERO PUSH2 0x554 JUMPI PUSH2 0x553 PUSH2 0x45F JUMP JUMPDEST JUMPDEST SWAP3 SWAP2 POP POP JUMP INVALID LOG2 PUSH5 0x6970667358 0x22 SLT KECCAK256 CHAINID 0xDC NUMBER 0xB9 DUP10 EXTCODEHASH 0x24 0xD9 PUSH7 0x69D44AAEA34583 ISZERO 0xCD CALLVALUE 0xEA EXTCODEHASH PUSH14 0x9397A26A2404E2833F7764736F6C PUSH4 0x4300081A STOP CALLER "
				},
				"gasEstimates": {
					"creation": {
						"codeDepositCost": "284800",
						"executionCost": "24587",
						"totalCost": "309387"
					},
					"external": {
						"mint(address,uint256)": "infinite",
						"send(address,uint256)": "infinite",
						"sender()": "2505"
					}
				},
				"methodIdentifiers": {
					"mint(address,uint256)": "40c10f19",
					"send(address,uint256)": "d0679d34",
					"sender()": "67e404ce"
				}
			},
			"storageLayout": {
				"storage": [
					{
						"astId": 3,
						"contract": "contracts/Coin.sol:Coin",
						"label": "sender",
						"offset": 0,
						"slot": "0",
						"type": "t_address"
					},
					{
						"astId": 7,
						"contract": "contracts/Coin.sol:Coin",
						"label": "balances",
						"offset": 0,
						"slot": "1",
						"type": "t_mapping(t_address,t_uint256)"
					}
				],
				"types": {
					"t_address": {
						"encoding": "inplace",
						"label": "address",
						"numberOfBytes": "20"
					},
					"t_mapping(t_address,t_uint256)": {
						"encoding": "mapping",
						"key": "t_address",
						"label": "mapping(address => uint256)",
						"numberOfBytes": "32",
						"value": "t_uint256"
					},
					"t_uint256": {
						"encoding": "inplace",
						"label": "uint256",
						"numberOfBytes": "32"
					}
				}
			},
			"userdoc": {
				"kind": "user",
				"methods": {},
				"version": 1
			}
		}
	}
}